{
  "contractName": "Ballot",
  "abi": [
    {
      "constant": true,
      "inputs": [
        {
          "internalType": "address",
          "name": "",
          "type": "address"
        }
      ],
      "name": "wallets",
      "outputs": [
        {
          "internalType": "address",
          "name": "inst",
          "type": "address"
        },
        {
          "internalType": "address",
          "name": "stud",
          "type": "address"
        },
        {
          "components": [
            {
              "internalType": "string",
              "name": "aadhar",
              "type": "string"
            }
          ],
          "internalType": "struct Ballot.Documents",
          "name": "documents",
          "type": "tuple"
        }
      ],
      "payable": false,
      "stateMutability": "view",
      "type": "function"
    },
    {
      "constant": false,
      "inputs": [
        {
          "internalType": "address",
          "name": "instituteaddress",
          "type": "address"
        }
      ],
      "name": "createNewMultiSigbyUser",
      "outputs": [],
      "payable": false,
      "stateMutability": "nonpayable",
      "type": "function"
    },
    {
      "constant": false,
      "inputs": [
        {
          "internalType": "string",
          "name": "a",
          "type": "string"
        }
      ],
      "name": "uploadAadhar",
      "outputs": [],
      "payable": false,
      "stateMutability": "nonpayable",
      "type": "function"
    }
  ],
  "bytecode": "0x608060405234801561001057600080fd5b506105a3806100206000396000f3fe608060405234801561001057600080fd5b50600436106100415760003560e01c806302e8dbc01461004657806389b08f1114610062578063fc75d4f514610094575b600080fd5b610060600480360361005b919081019061035e565b6100b0565b005b61007c60048036036100779190810190610335565b6100b3565b60405161008b93929190610411565b60405180910390f35b6100ae60048036036100a99190810190610335565b6101c9565b005b50565b60006020528060005260406000206000915090508060000160009054906101000a900473ffffffffffffffffffffffffffffffffffffffff16908060010160009054906101000a900473ffffffffffffffffffffffffffffffffffffffff169080600201604051806020016040529081600082018054600181600116156101000203166002900480601f0160208091040260200160405190810160405280929190818152602001828054600181600116156101000203166002900480156101bb5780601f10610190576101008083540402835291602001916101bb565b820191906000526020600020905b81548152906001019060200180831161019e57829003601f168201915b505050505081525050905083565b806000803373ffffffffffffffffffffffffffffffffffffffff1673ffffffffffffffffffffffffffffffffffffffff16815260200190815260200160002060000160006101000a81548173ffffffffffffffffffffffffffffffffffffffff021916908373ffffffffffffffffffffffffffffffffffffffff160217905550336000803373ffffffffffffffffffffffffffffffffffffffff1673ffffffffffffffffffffffffffffffffffffffff16815260200190815260200160002060010160006101000a81548173ffffffffffffffffffffffffffffffffffffffff021916908373ffffffffffffffffffffffffffffffffffffffff16021790555050565b6000813590506102db81610549565b92915050565b600082601f8301126102f257600080fd5b81356103056103008261047c565b61044f565b9150808252602083016020830185838301111561032157600080fd5b61032c8382846104f6565b50505092915050565b60006020828403121561034757600080fd5b6000610355848285016102cc565b91505092915050565b60006020828403121561037057600080fd5b600082013567ffffffffffffffff81111561038a57600080fd5b610396848285016102e1565b91505092915050565b6103a8816104c4565b82525050565b60006103b9826104a8565b6103c381856104b3565b93506103d3818560208601610505565b6103dc81610538565b840191505092915050565b6000602083016000830151848203600086015261040482826103ae565b9150508091505092915050565b6000606082019050610426600083018661039f565b610433602083018561039f565b818103604083015261044581846103e7565b9050949350505050565b6000604051905081810181811067ffffffffffffffff8211171561047257600080fd5b8060405250919050565b600067ffffffffffffffff82111561049357600080fd5b601f19601f8301169050602081019050919050565b600081519050919050565b600082825260208201905092915050565b60006104cf826104d6565b9050919050565b600073ffffffffffffffffffffffffffffffffffffffff82169050919050565b82818337600083830152505050565b60005b83811015610523578082015181840152602081019050610508565b83811115610532576000848401525b50505050565b6000601f19601f8301169050919050565b610552816104c4565b811461055d57600080fd5b5056fea365627a7a7231582029f54e446ea02e368a524c1df1341c6b61e0295bee5eea8f76e9456fe63505986c6578706572696d656e74616cf564736f6c63430005100040",
  "source": "pragma solidity ^0.5.16;\r\npragma experimental ABIEncoderV2;\r\ncontract Ballot {\r\n \r\nstruct Documents {\r\n    \r\n    string aadhar;\r\n\r\n}\r\n\r\nstruct MultiSig\r\n{\r\n    \r\n    address inst;\r\n    address stud;\r\nDocuments documents;\r\n    \r\n    \r\n}\r\n\r\nmapping(address=>MultiSig) public wallets ;\r\n\r\n\r\nfunction createNewMultiSigbyUser(address instituteaddress) public {\r\n        \r\n        //wa = wallets[msg.sender];\r\n        wallets[msg.sender].inst = instituteaddress;\r\n        wallets[msg.sender].stud = msg.sender;\r\n    \r\n\r\n}\r\n\r\n\r\n\r\nfunction uploadAadhar(string memory a)public {\r\n    \r\n    //string memory wa1 = wallets[msg.sender];\r\n\r\n    \r\n    \r\n    \r\n}\r\n}\r\n\r\n",
  "sourcePath": "C:\\Users\\hp\\Desktop\\myproj\\contracts\\SimpleStorage.sol",
  "compiler": {
    "name": "solc",
    "version": "0.5.16+commit.9c3226ce.Emscripten.clang"
  },
  "schemaVersion": "3.0.23",
  "updatedAt": "2020-04-10T14:04:33.386Z",
  "devdoc": {
    "methods": {}
  },
  "userdoc": {
    "methods": {}
  }
}